:100000000C9404030C9421030C9421030C942103FD
:100010000C9421030C9421030C9421030C942103D0
:100020000C9421030C9421030C9434320C94083367
:100030000C94CB2C0C9421030C9421030C942103DD
:100040000C9421030C9421030C9421030C942103A0
:100050000C9421030C94522D0C9421030C94210335
:100060000C9421030C9421030C9421030C94210380
:100070000C9421030C9421030C9421030C94210370
:100080000C9421030C9421030C9421030C94210360
:100090000C9421030C9421030C9421030C94210350
:1000A0000C9421030C9421030C94210314001A00D6
:1000B0000800150017001C0018000C0012001300A7
:1000C00004001600070009000A000B000D000E00D6
:1000D0000F002D001D001B00060019000500110077
:1000E0001000360037000000E000E30000002C00A4
:1000F000E2002A0000000000E500280014001A00B9
:100100000800150017001C0018000C001200130056
:1001100004001600070009000A000B000D000E0085
:100120000F002D001D001B00060019000500110026
:100130001000360037000000E000E30000002C0053
:10014000E2002A0000000000E500280014001A0068
:100150000800150017001C0018000C001200130006
:1001600004001600070009000A000B000D000E0035
:100170000F002D001D001B000600190005001100D6
:100180001000360037000000E000E30000002C0003
:10019000E2002A0000000000E5002800FD377A5840
:1001A0005A000004E6D6B446020021011600000001
:1001B000742FE5A3E001D200EC5D003D8889C654B0
:1001C00036C3174FE4EFB08749EAC6BB1297E64142
:1001D000FE90B053D559ED99082C79FFF9704A3B40
:1001E000453BBCAA551D8EDB34556EA3230701F099
:1001F000673EF167DF44931E2686023E8CC7D831E6
:100200004EA4DBF71A45FD5382C4DB1363706031E3
:10021000C3B8715EEFAAD6199A346B62C1E0FF6170
:100220000C3EF25C20E43DA326FF68481288EF6B89
:10023000ECFF31CBD03E992EED9B8B3FF01D87FD1F
:100240001B576F10F9D0D344EED885E250D8ED504B
:10025000B9104C67CAA176D6624B401EC1949B244C
:100260008E6EF683957900B352F55D412824F5ED45
:100270005AC9F279AF10619C2C99CEA544BB7F740A
:100280001591F51849E70D9877E37E384F3BC53750
:10029000017E8BCF2A501A1CA413BF309EC2530676
:1002A000C2CB3DB0E99CE50029BFDAC00D0B12506E
:1002B00000018802D303000026B9D17DB1C467FBD9
:1002C000020000000004595A010001006904501A9C
:1002D000821A0000020002006504501A821A00000F
:1002E000030001006A04501A821A00000400020090
:1002F0004F04501A821A491A050001006B04501A63
:10030000821A0000060002005104501A821A0000EE
:10031000070002006704501A821A0000080001005A
:100320006C04501A821A0000090002005304501A8B
:10033000821A31190A0002005504501A821A311922
:100340000B0002005704501A821A31190C000200E7
:100350005904501A821A31190D0002005B04501A18
:10036000821A31190E0002005D04501A821A3119E6
:100370000F0002005F04501A821A311910000200A7
:100380006104501A821A3119110002006304501AD4
:10039000821A3119120002006D04501A821A0000EC
:1003A000130002006F04501A821A000014000100AA
:1003B0007104501A821A000015000000000056193E
:1003C000D019000000000000000000002A2B2800C7
:1003D00000000000000000000000000000000029F4
:1003E000000000002C1E3420212224342627252E34
:1003F000362D3738271E1F2021222324252633336C
:10040000362E37381F0405060708090A0B0C0D0E97
:100410000F101112131415161718191A1B1C1D2F63
:100420003130232D350405060708090A0B0C0D0E83
:100430000F101112131415161718191A1B1C1D2F43
:100440003130354C000000000000000000000000CA
:10045000000000000000000000000000000000009C
:1004600000000000000000007E0F00D4FFFFFFC767
:10047000000000781C037600690061006C003A00FF
:10048000660036003400630032006200330063000F
:100490000000160363006F006F006C003300330030
:1004A000360062006C00650000000A036D002E003B
:1004B0006B00690000000403090409025B000301EA
:1004C00000A0FA0904000001030101000921110143
:1004D000000122440007058103080001090401000E
:1004E000020300000009211101000122220007057A
:1004F0008203200001070503032000010904020014
:100500000103000000092111010001227B00070501
:1005100084032000011201000200000008434D3650
:10052000030001010203010660FF0961A1010962E4
:10053000150026FF00952075088102096315002625
:10054000FF00952075089102C005010902A10185EF
:10055000020901A1000509190129081500250195C5
:1005600008750181020501093009311581257F9542
:10057000027508810609381581257F950175088166
:1005800006050C0A38021581257F9501750881063C
:10059000C0C005010980A101850319012AB7001512
:1005A0000126B700950175108100C0050C0901A155
:1005B00001850419012AA002150126A002950175E2
:1005C000108100C005010906A101050719E029E70E
:1005D00015002501950875018102950175088101B5
:1005E0000507190029FF150026FF009506750881EB
:1005F00000050819012905150025019505750191CA
:1006000002950175039101C011241FBECFEFDAE0FE
:10061000DEBFCDBF11E0A0E0B1E0E2EAFBE602C040
:1006200005900D92A43BB107D9F724E0A4EBB1E00B
:1006300001C01D92A438B207E1F70E9416150C9470
:10064000AB350C9400008330B8F46430A8F44A3021
:1006500098F450E09AE0699F400D511D1124FA0171
:1006600098E2899FE00DF11D1124EE0FFF1FE45564
:10067000FF4F85919491089581E090E008959C0149
:100680003A9521153F4150F5FC01EE27F170BC0170
:1006900066277270AC01442754709C012227387081
:1006A00094FF0EC080E1EF2B09F480E0672B09F086
:1006B0008062452B09F08064232B89F080680895BF
:1006C00081E0EF2B09F480E0672B09F08260452B75
:1006D00009F08460232B19F08860089580E0089564
:1006E000CF93DF93EB010E943F03FE010995DF9159
:1006F000CF910895CF93DF93EC01805E9109089725
:1007000020F06EE276E0209711F460E276E0CE0110
:100710000E9470038C2F0E947F05DF91CF91089576
:10072000CF93DF93EC010E94C805CE01805E910952
:10073000089720F065E376E0209711F467E276E011
:10074000CE010E947003DF91CF91089581E008955A
:100750000E94A603089581E008950E94A6030895CB
:100760000E94AD03089508950E94B3030895A6E082
:10077000B0E0EDEBF3E00C94F33449835A839E83AD
:100780003091BB0189819A8131111AC03E81332396
:1007900099F0222389F00E94190A182F682F898165
:1007A0009A810E94F50969817A81812F0E949F12A6
:1007B0002696E3E00C940F350E94070A182FF3CF1A
:1007C0000E94190A69817A81F1CFFC01262F878165
:1007D0009085009741F440815181628173818481C9
:1007E00095810E94B70308950F931F93CF93DF93D2
:1007F000EC0161E00E94E5038C01BE010E94A803A8
:10080000882351F0BE01C8010E941E208170DF9133
:10081000CF911F910F91089580E0F8CFCF93DF9390
:10082000EC0160E00E94E503BE010E94B403DF9189
:10083000CF91089581E008950E941A040895CF93FE
:10084000C82F0E9452068C2F0E941C042FEF84E3B5
:100850009CE0215080409040E1F700C00000CF9123
:10086000089581E00E941F040E94762D089580E083
:100870000E941F040E94872D08950F931F93CF930A
:10088000DF93EC018B010E94CE28882329F061E0E0
:10089000C8010E94E503EC01B801CE010E94422A82
:1008A000811106C080E0DF91CF911F910F910895D3
:1008B000B801CE010E94E3188823A1F3B801CE014C
:1008C0000E94B003882371F3B801CE010E94F6287C
:1008D000882341F3B801CE010E94361D882311F30D
:1008E000B801CE010E9494298823E1F2F8018581A4
:1008F000882361F0C330FCE7DF07E9F058F4C11545
:10090000ECE7DE07A9F0C130DC47B9F0C8010E946E
:10091000AB03C9CFCB358CE7D807A9F0CC35ECE7D2
:10092000DE0771F0CA35DC4789F70E94CD0FEECFA4
:100930000E943104B7CF0E94D50F0E943704B2CF76
:100940000E94C30FE3CF0E94D10FE0CFCF93DF937C
:10095000EC0161E00E94E503BE010E943D04DF91CD
:10096000CF9108950E94A72C0E94EA0408950E9446
:10097000EE040E94AC2C0895982F92959F7011F070
:10098000892F94E0282F2695269511F09E5F822FBF
:10099000869509F09F5F892F0895089581E0089555
:1009A0000895CF93DF93D82F0E94CE04C82F8823B9
:1009B00019F08D2F0E94D0048C2FDF91CF910895D4
:1009C0000895CF93C82F0E94CD048C2F0E94D1048C
:1009D000CF91089580E00E94E10408950E947D2B4C
:1009E0000E94E1040895CF930E947D2BC82F80912F
:1009F000B6018C1779F0C093B6010E94372D609331
:100A0000B7017093B8018093B9019093BA018C2F0C
:100A10000E94E104CF910895019708F40895EFE949
:100A2000FFE03197F1F700C00000F6CFAFE0B0E093
:100A3000ECE1F5E00C94F2344A875B876C877D87A4
:100A40008E879F87882349F08091BC019091BD01DA
:100A500001969093BD018093BC018F8581110E9406
:100A6000AA0E1F821886198686E0FE013A96DE01DC
:100A7000119601900D928A95E1F78091EC0382FF27
:100A800012C08091510490915204892B61F00E9410
:100A9000660E882319F082E00E94970F0E94420E92
:100AA00081110E94170F8D8181110FC009811A8158
:100AB0002B813C814D815E816F81788589850E9483
:100AC000B60D2F96E4E00C940E35CE0101960E94EF
:100AD000F4038111EBCFF5CFFC012481213021F407
:100AE000808191810E94460A0895662329F00E9420
:100AF00067250E944C2608950E94D325FACFCF93F4
:100B0000C82F882399F08CEF8C0F813A88F48C2FB2
:100B10000E94022C882329F08C2F0E94452C0E94D1
:100B2000680F8C2F0E943D2C0E94680FCF91089572
:100B300080E28C0F883048F4C77081E001C0880FD4
:100B4000CA95EAF70E948A0EEFCFEBE5EC0FE3308F
:100B500040F4F0E0E65AFE4F808190E00E94A32B23
:100B6000E5CFE8E5EC0FEB3150F4F0E0EE0FFF1FBE
:100B7000EC5DFE4F808191810E94C82BD7CF83E32B
:100B80008C0F833198F661E08C2F0E947505CECFD3
:100B9000882381F19CEF980F913A28F40E94452C0C
:100BA0000E94680F089590E2980F983050F4877073
:100BB00091E001C0990F8A95EAF7892F0E94900E63
:100BC000EFCF9BE5980F933028F490E080E00E94EF
:100BD000A32B089598E5980F9B3128F490E080E0CE
:100BE0000E94C82B089593E3980F933118F460E0A6
:100BF0000E94750508951F93CF93DF93182FEB0183
:100C00000E947F05209739F4812F0E94C805DF914B
:100C1000CF911F9108958FE99FE00197F1F700C0F0
:100C200000002197EFCF60916F04709170048933B9
:100C300021F060916D0470916E040E94FB0508958F
:100C4000882321F00E948A0E0E94680F089588234D
:100C500021F00E94900E0E94680F0895882321F0D1
:100C60000E949D0E0E94680F0895882321F00E9423
:100C7000A30E0E94680F089590E080E00E94A32BCD
:100C800090E080E00E94C82B0E94AA0E0E94680F8C
:100C90000E9468260E944C2608950E944D2C0E94B6
:100CA0003C0608950E94970E0E944D060895929565
:100CB0009F70963091F058F4925F9F70923058F484
:100CC000803F19F030F4883E30F481E008959A5F57
:100CD000F4CF843FD1F380E00895883EB0F3813FA4
:100CE000D1F7F3CFFC018481882371F0878190854F
:100CF000009729F00E9481110E9457060895808173
:100D000091810E94460AF8CF80E00895B0E0A0E00B
:100D1000ECE8F6E00C94ED346C01EB01FC0115817C
:100D2000F680F2949FE0F9220E94800EE82E88233C
:100D3000F9F0E12E1123E1F08D2F807F803461F0F6
:100D400080E28C0F883010F18D2F807E803221F46C
:100D5000C230E0F0FF20D1F08091EC0382FF16C09A
:100D600082E00E94970F0E94800E91E0E82EE92613
:100D7000BD2EB2948FE0B822FBE0FB1508F463C0EF
:100D8000EB2DF0E0E355FA4C0C94D734E12CF0CF86
:100D90000D2F0F708D2F807F11F00295007F112392
:100DA00099F0002359F080E28C0F883010F0C111C7
:100DB00007C0802F0E948A0E0E94680F8C2F3BC0B4
:100DC000802F0E949D0EF8CF8C2F0E94C805002313
:100DD000D1F180E28C0F883010F0C11104C0802F57
:100DE0000E94900E03C0802F0E94A30E0E94680FE5
:100DF0002AC00D2F0F708D2F807F803211F0029549
:100E0000007FCC2351F0C13009F480C0112309F4D4
:100E10008CC0FF2009F445C0D1CF8091EC0382FD46
:100E20003CC0112359F0002329F0802F0E948A0E24
:100E30000E94680F80E00E947F0505C080E00E944C
:100E4000C8050111CCCFEB2DE850FF0B349720F4EF
:100E50000E947D2B0E94E104CE010E945706811161
:100E600089C11092BD011092BC01EE2089F00E9450
:100E7000620E80FD0DC0F60115820E945C0E0E947C
:100E80006909C6010E94FB080E945C0E0E94750958
:100E9000CDB7DEB7E9E00C9409351123E9F0F11084
:100EA00004C0802F0E942006CECF21E0F21204C0A1
:100EB000802F0E94D00EC7CF80916B04823018F231
:100EC0008F11C1CF802F0E942006802F0E94E70E35
:100ED000802F0E94B40EB7CFF1100AC0802F0E945D
:100EE0002706802F0E94E70E802F0E94C00EABCFF6
:100EF00080916B04823008F4A6CF31E0F312A3CFC7
:100F00000E94870E802309F49ECFE8CF8091710460
:100F1000112321F08F1508F496CFC3CFF81608F0EF
:100F200092CF802F0E9427068ECFFF20D1F3809191
:100F30006F0490917004C93321F080916D049091F9
:100F40006E040E940C058C2F0E94C8057CCF8D2F4B
:100F500086958695837061F0813009F074CFCE015B
:100F60009370111102C080E090E00E94C82B6BCFFB
:100F7000CE019370111102C080E090E00E94A32B7B
:100F800062CF612F8C2F0E9475055DCF8D2F8370EE
:100F900081F5111158CF4C2F429546954770440F5B
:100FA000440F8C2F8F70042E01C0880F0A94EAF72B
:100FB0002C2F2071C4FF07C02FE030E001C0220FAA
:100FC0004A95EAF720959D2F969596959370822BDA
:100FD000923049F058F4913019F00E94450933CF0E
:100FE0000E943F0930CF0E944B092DCF0E943C093F
:100FF0002ACF8695112311F08D2F8170882309F453
:1010000022CF4C2F429546954770440F440F8C2FAA
:101010008F70042E01C0880F0A94EAF72C2F2071DC
:10102000C4FF07C02FE030E001C0220F4A95EAF765
:1010300020959D2F969596959370822B923049F02E
:1010400058F4913019F00E949409FDCE0E948E0947
:10105000FACE0E949A09F7CE0E945709F4CE0D2FBE
:101060000F70112329F0802F0E9469098C2F1ACF4D
:101070008C2F0E942706802F0E947509E4CEC23F64
:1010800051F160F4C03FB9F0C13F81F0112309F480
:101090006CC0F11093CE8D2F8F7121C0C33F11F121
:1010A000C43FA1F78091EC0382FD26C08D2F8F7184
:1010B000112311F314C080917104112341F0F8162B
:1010C00008F0C1CE8D2F8F710E948209BCCE8F1582
:1010D00008F4B9CEF7CF8D2F8F711111CDCF0E94AB
:1010E0006909B1CE112329F08D2F8F710E946009FB
:1010F000AACE0E945C09A7CE80916B04823010F1C9
:101100001123B1F00E94620E843041F40E948D0FD1
:101110008D2F8F710E947509E12C95CE80916B0403
:1011200063E0F816C8F78D2F8F710E946F0FF4CF10
:10113000F81620F00E948D0F64E0F5CF81E00E9448
:10114000970FEACF112331F063E08D2F8F710E944A
:101150006F0F79CE81E00E94970F81E08F1508F024
:1011600072CE82E00E94970F6ECEF110E0CE8D2FEE
:101170008F7182CF112319F0F11073CE76CEF1105A
:1011800070CE20E0F60140815181628173818481BB
:1011900095810E94B703B6010E949C1B882309F425
:1011A00060CE8091BC019091BD01029709F059CEAB
:1011B0008C2F0E94130655CE0F931F93CF93DF936E
:1011C000EC018F819885009781F00E9481118C013C
:1011D0000E94A0090E943B09B801CE010E94860628
:1011E000DF91CF911F910F910895688179818D8151
:1011F0000E94510AECCFCF93DF93EC018C818823BE
:1012000099F0CE010E94A604811111C00E94800EA7
:10121000882351F08D81882339F08091EC0382FF7F
:1012200003C082E00E94970FDF91CF910895CE0115
:101230000E94DC08CE010E940E04F6CFA6E0B0E0CA
:10124000E4E2F9E00C94F4342696E2E00C941035D4
:10125000A9E0B0E0EEE2F9E00C94F2342996E4E083
:101260000C940E3508950E94320908950E943309A6
:101270008093CE01089508950E94360908959091B3
:10128000CE01892B0E94360908959091CE018923C1
:101290000E94360908959091CE0189270E9436094F
:1012A00008950E94320908950E94510908950E94EC
:1012B00054098093CD01089580E00E945709089554
:1012C00091E001C0990F8A95EAF7892F0E9457098A
:1012D000089521E030E001C0220F8A95EAF780915D
:1012E000CD01822B0E945709089521E030E001C012
:1012F000220F8A95EAF720958091CD0182230E94E2
:101300005709089521E030E001C0220F8A95EAF7DD
:101310008091CD0182270E94570908959091CD01B7
:10132000892B0E94570908959091CD0189230E942D
:10133000570908959091CD0189270E945709089572
:101340000895262F277091E001C0990F2A95EAF79A
:1013500023E0769567952A95E1F7FB01EE0FFF1FD5
:10136000E60FF71FE40FF51F50E040E0682F70E034
:101370008191DF0111979B01042E02C036952795BC
:101380000A94E2F7217021952827292328272C93F6
:101390004F5F5F4F4330510559F70895A82FA7704D
:1013A00023E0969587952A95E1F7FC01EE0FFF1F44
:1013B000E80FF91FE60FF71F50E040E080E02191B1
:1013C00030E00A2E02C0369527950A94E2F7217084
:1013D0003327042E01C0220F0A94EAF7822B4F5FB5
:1013E0005F4F4330510559F70895262F943070F41C
:1013F0008A3060F4682F70E08AE0989F600D711D5C
:1014000011244EEB51E0822F0E94A1090895292F4B
:10141000943068F48A3058F490E06EEB71E03AE072
:10142000239F800D911D11240E94CE09089580E014
:101430000895CF92DF92FF920F931F93CF93DF9384
:101440006C010091CD018091CE01082BC3E0D0E06A
:1014500010E0FC2EC8010C2E02C0959587950A94C9
:10146000E2F780FD0CC02197A0F7F12C8F2DDF91C2
:10147000CF911F910F91FF90DF90CF900895B6010B
:101480008C2F0E94BA12019771F3F0CFCF93DF93A4
:10149000EC010E94190ABE010E94BA12DF91CF919D
:1014A00008951F93CF93DF93EB019091BB01992394
:1014B00039F0CB010E94460ADF91CF911F91089528
:1014C000882369F0CB010E94190A182F682FCE01DA
:1014D0000E94F509BE01812F0E94BA12EDCFCB0107
:1014E0000E94070A182FF6CFE1E0F0E0DF0102C00A
:1014F000AA0FBB1F6A95E2F7BD01DF0102C0AA0F68
:10150000BB1F4A95E2F76A2B01C0EE0F2A95EAF756
:10151000962F9823961302C08E2B0895E0958E2364
:101520000895242F462F682F8091CD010E94740AC0
:101530000E9457090895FF920F931F93CF93DF9353
:10154000C091CF0189E0F82E8091D0018C1305C0A5
:10155000CDB7DEB7E5E00C940D35D0E0FC9EF00190
:10156000FD9EF00D1124EF52FE4F0081118122816A
:101570003381448155816681778180850E94280965
:101580002196C770E1CF0F931F930091190210911C
:101590001A0220911B0230911C0240911D025091B1
:1015A0001E0260911F0270912002809121020E9410
:1015B00028091F910F910895482F2091CF019091F4
:1015C000D00159E0291302C080E0089530E0529F15
:1015D000F001539FF00D1124EF52FE4F81816813EB
:1015E00006C08081481303C085818111EECF2F5F33
:1015F0003F4F2770E7CFB0E0A0E0E1E0FBE00C94C4
:10160000EF3480911F02807F09F054C080911E0248
:10161000882309F44FC0E091CF0189E0D82E809152
:10162000D0018E1709F446C00E2F10E0ED9DF00199
:101630001124EF52FE4F8481882309F440C0D09ECC
:10164000E001D19ED00D1124FE01EF52FE4F918199
:1016500080911A02981333C09081809119029813D7
:101660002EC0858181112BC0E280F38080911B0206
:1016700090911C02E81AF90A60E089E192E00E9468
:10168000E50369E172E00E94C318E816F906B8F4B0
:1016900080911F028F70806180931F02C952DE4FBC
:1016A00088818F708061888389E192E00E94FB08C5
:1016B0000E949B0ACDB7DEB7E7E00C940B35F8012A
:1016C0003196E770ACCF2F923F925F926F927F92EC
:1016D0008F929F92AF92BF92CF92DF92EF92FF9242
:1016E0000F931F93CF93DF93CDB7DEB768970FB6F5
:1016F000F894DEBF0FBECDBF8C0186E0F801DE019D
:10170000539601900D928A95E1F7D80114967C903A
:1017100014971596EC9089E1282E82E0382E80915E
:101720001D0281113AC071101BC0FF24F3948F2D4C
:1017300068960FB6F894DEBF0FBECDBFDF91CF9194
:101740001F910F91FF90EF90DF90CF90BF90AF90DF
:101750009F908F907F906F905F903F902F90089513
:10176000EE20B9F0C8010E947206F82E882389F095
:1017700089E0F801A9E1B2E001900D928A95E1F7C4
:1017800089E192E00E946C050E94FB0A0E94C30A54
:10179000CECFC8010E94FB08C8CFF80160805180FD
:1017A000C280D38060E089E192E00E94E5035C01A1
:1017B000F0901E0280911B0290911C02FF2009F400
:1017C00033C14601881A990A60E089E192E00E94DB
:1017D000E50369E172E00E94C3188816990608F0D3
:1017E000BEC0772009F4A1CF80911F02382F307F2F
:1017F00020911A02D80111969C91119731115CC069
:10180000291321C0209119029C9129131CC04091D9
:1018100020025091210217962D913C9142175307B7
:1018200091F4E11095C18F70806180931F020E9436
:10183000C30A89E192E00E94FB0880911F02F8012F
:101840008683F12C74CFE11083C1652D862D0E9413
:10185000DC0A882309F45BC169E172E0C5010E94DA
:10186000911B882309F453C189E192E00E94FB088F
:1018700089E0E9E1F2E0DF011D928A95E9F70E9433
:10188000C30ADFCF2A5F2F70223078F0C8010E9490
:10189000FB08EF2C5BC1992319F0882309F456C18A
:1018A000805E883008F452C1F1CF803F08F44EC109
:1018B000815F833058F74AC1291320C02091190253
:1018C0009C9129131BC04091200250912102179630
:1018D0002D913C9118974217530781F4E1100EC0E7
:1018E00016968C93C8010E94FB0889E0F801A9E1D3
:1018F000B2E001900D928A95E1F748CFC8010E94AD
:101900007206882309F445CFEE2009F442CF809176
:101910001F028032B8F02091190230911A023B87E1
:101920002A87DD86CC8690911D029E871F86888B34
:1019300080912002909121029A8B898BCE010A9688
:101940000E94FB0889E0F801A9E1B2E001900D9244
:101950008A95E1F70E94FB0A0E94C30AE6CE8091B5
:101960001F02982F907FA1F46C2DDE8ACD8A462D20
:10197000552D7E89872D9E2D0E941E0989E192E0BA
:101980000E94FB0889E0F10111928A95E9F777CF6F
:10199000772009F4CACE20911A02D80111969C91A1
:1019A000119729131DC0209119029C91291318C069
:1019B000409120025091210217962D913C91189749
:1019C0004217530769F4E1100BC016968C93C801B7
:1019D0000E94FB0889E0F10111928A95E9F7A7CEF0
:1019E000C8010E947206882309F4D3CEEE2009F4C0
:1019F000D0CE80911F02803208F4A4CF209119022A
:101A000030911A023A832983DC82CB8290911D02A5
:101A10009D831E828F83809120029091210299875D
:101A20008887CE0101968CCF5601A81AB90A60E0CA
:101A300089E192E00E94E50369E172E00E94C31827
:101A4000A816B90608F053C0772009F46ECEFE2C14
:101A5000EE2009F49ECE90911A02D80111968C9135
:101A60001197981336C0909119028C91981331C038
:101A7000209120023091210217968D919C91281778
:101A8000390739F580911B0290911C02C81AD90AB6
:101A9000B8ECCB16D104A0F490911F0290FD10C0B9
:101AA000907F71F080911F02F8018683903F09F4C6
:101AB00019CF982F907F905F8F70892B868312CFDC
:101AC00089E0F801A9E1B2E001900D928A95E1F771
:101AD0002ECEC8010E947206811134CF80911F0260
:101AE000816080931F02C8010E94FB0820CE6C2DEC
:101AF000DE8ACD8A462D552D7E89872D9E2D0E940A
:101B00001E0989E0D1011D928A95E9F73FCE652D26
:101B1000862D0E94DC0AE82E811193CE6B8A5C8AA6
:101B20008B899C890E94460A292F22952F70243088
:101B300008F0A8CE9F70223008F4ADCE992309F4A6
:101B4000AFCEF8019681907F09F0AACEFE2CEFCDA2
:101B500080911F02816080931F0269E172E0C501DC
:101B60000E94951B882309F46CCE7ECEA2E1B0E0E2
:101B7000ECEBFDE00C94F1340A871B872C873D8742
:101B80004E875F87688B798B8A8BCE010A960E947D
:101B9000630B8823C9F04E85442351F00A851B85C9
:101BA0002C853D855F85688979898A890E94280905
:101BB00089E0F82E8091CF019091D00189133DC02A
:101BC0006296E5E00C940D3589E0FE013A96DE015F
:101BD000119601900D928A95E1F78E85882341F345
:101BE0002091D00130E0C90101968770992740917A
:101BF000CF014817190699F099E0929FD001939F61
:101C0000B00D1124AF52BE4FFE01319601900D92DE
:101C10009A95E1F78093D0010E949B0AC9CF0E9458
:101C200052061092D0011092CF0189E0E9E1F2E072
:101C3000DF011D928A95E9F7BBCF8F9DC00111246A
:101C40008F529E4F0E94630B882309F4B9CFE09115
:101C5000CF01FE9EF0011124EF52FE4F0081118151
:101C600022813381448155816681778180850E94FC
:101C700028098091CF0190E0019687709927809381
:101C8000CF0198CF8091510490915204892B89F013
:101C90000E942B2D20912D0230912E02AC01421B6F
:101CA000530B81E0209151043091520442175307A5
:101CB00008F480E08170089580912C0286958695C5
:101CC0008695089580912C02877008950E942B2D8F
:101CD00020912A0230912B02821B930B20915104F8
:101CE000309152048217930748F080912C0282FBB6
:101CF000882780F991E089278170089580E0FCCFE2
:101D000090912C02977081E009F480E00895809111
:101D10003A02089590913A02892B80933A020895ED
:101D2000809590913A02982390933A0208951092E8
:101D30003A02089580913902089590913902892BD1
:101D40008093390208958095909139029823909359
:101D50003902089510923902089580913002089551
:101D600008950E94B00E089590912F02292F2823E4
:101D7000281729F0892B80932F020E94B10E089515
:101D800090912F02292F282331F080958923809369
:101D90002F020E94B10E089508950E94CC0E08955E
:101DA000CF93C82F809130028C238C1771F00E9442
:101DB0002B2D90932E0280932D02809130028C2B3C
:101DC000809330028C2F0E94CD0ECF910895909178
:101DD0003002292F282381F08095892380933002B7
:101DE000882359F00E942B2D90932E0280932D0270
:101DF000809130020E94CD0E089590E080E0F4CFF3
:101E0000CF93C82F8091EC0382FF0FC080913002E6
:101E10008C1759F00E942B2D90932E0280932D0247
:101E2000C09330028C2F0E94CD0ECF9108958091E7
:101E30003002882349F01092300210922E02109244
:101E40002D0280E00E94CD0E08950F931F93CF9333
:101E5000DF930091000110910101C0913A0280913D
:101E60003902C82B80913002882399F08091510467
:101E700090915204892B29F00E94420E81110E94F8
:101E8000170F80913002C82B0E94ED2B81110E9408
:101E9000170FF801C083C0910001D091010148E003
:101EA00050E062E272E0CE010E942435892B59F0A5
:101EB00088E0FE01A2E2B2E001900D928A95E1F77E
:101EC000CE010E948A2BDF91CF911F910F9108952F
:101ED0000E94250F089508950E946B0F0895909118
:101EE000EC0392FF17C098E0899F90011124622BA8
:101EF00060932C020E9469090E942B2D90932B0263
:101F000080932A0280912C028695869586950E9460
:101F10006C0F08950E946909089510922C02109286
:101F20002B0210922A0280E00E946C0F089590917B
:101F30002C028095892380932C02282F277069F426
:101F4000891759F09091EC0392FF07C0869586950A
:101F500086950E9475090E948D0F08959091EC035B
:101F600092FB222720F9281769F080FB92F99093C1
:101F7000EC038091EB039091EC030E94F70F82E059
:101F80000E94970F08958091EC0382FB882780F9C7
:101F900091E089270E94AE0F089581E00E94AE0F64
:101FA000089580E00E94AE0F08956FEF7FEF90E0FC
:101FB00080E00E948D35089590E080E00E945935C0
:101FC000853E9E4F19F40E94DD29089580E0089512
:101FD00082E090E00E945135089583E090E00E94F5
:101FE0005135089584E090E00E9459350895BC0170
:101FF00084E090E00E948D350895AB01BC018FE034
:1020000090E00E9481350895AB01BC0183E190E02E
:102010000E948135089560E070E0CB010E940410B9
:10202000089560E070E0CB010E94FD0F0E940B104C
:102030000895A8E0B0E0EFE1F0E10C94F43465EE2F
:102040007EEF90E080E00E948D3560E082E090E0DD
:102050000E946F3581E08093CE0161E083E090E0E3
:102060000E946F3560E074E184E090E00E948D355D
:1020700060E086E090E00E946F3560E087E090E0ED
:102080000E946F3540E050E0BA0188E090E00E9485
:10209000813560E083E290E00E946F3560E08CE083
:1020A00090E00E946F3560E08DE090E00E946F3517
:1020B00019821A821B821C821D821E821F82188630
:1020C00048E050E067E170E0CE0101960E945F3584
:1020D00040E050E0BA018FE190E00E94813580E05D
:1020E0000E94F6290E94252A0E9411102896E2E0FB
:1020F0000C9410350E9419100895A6E0B0E0E3E8B2
:10210000F0E10C94F2340E942B2D8C0180913B0263
:1021100090913C028017910781F019821A820E94E7
:102120002B2D682F49815A81792F80E090E00E9401
:10213000160510933C0200933B022696E4E00C94B3
:102140000E350E94372D6093490270934A028093A6
:102150004B0290934C026093450270934602809329
:102160004702909348020895089508950E94B4107C
:10217000089508950E94B910089580EB93E10E949C
:102180002D150E94AB150E949D1A0E94B5100E9449
:10219000B610089581E008950E94CA1008950E9423
:1021A000CA100895089508950E94D2100E94D31075
:1021B00008950E94DC0F811102C00E947A100E94D3
:1021C000E80F80934D020E94F20F9093EC038093EE
:1021D000EB030E94681E0E94ED0F0E943C09809153
:1021E000CD010E94540908950E94222D0E94352A93
:1021F0000E9486140E94D9100E94E0040E94BA1026
:1022000008950E9458290E94D71F0E94FB1C089520
:10221000A6E0B0E0EEE0F1E10C94E8340E94CC10CE
:1022200081110CC00E947D100E9401110E948A261B
:102230000E94F3042696EEE00C9404350E949C1450
:102240002DE3822E22E0922E640110E0F601E1904F
:10225000F1906F01812F0E94D0131F5F143009F499
:102260004BC0E816F90691F380914D0281FD0E9462
:10227000D9130E94CF10782E10E066246394812F2A
:102280000E94D0137C01F401A190B1904F018A15F6
:102290009B0561F1A826BF2400E0CC24C394D12C77
:1022A000C5018C219D21892BC1F07720B1F00983D4
:1022B0001A830E942B2D9C838B836D8221E0C701A2
:1022C0008C219D21892B09F420E049815A816B8161
:1022D0007C818D81922F0E9416050F5FCC0CDD1C36
:1022E0000A30F1F6F4013297F182E0821F5F143078
:1022F00031F60E94A11098CFE816F90609F0B4CF84
:1023000091CF1F93CF93DF930E94BF12EC01C115B1
:1023100080E5D807F0F5C11580E4D80708F09CC027
:10232000C03ED10520F5CD3CD10508F082C0C83AA9
:10233000D10578F4C53AD10508F073C0C130D10594
:1023400019F1209709F1C430D105F0F4D0E0C0E0D4
:102350001BC0C33CD105D0F7C85AD0E0CC0FDD1F5D
:10236000C35ADE4F0990D881C02DD4640DC0C11569
:1023700080E2D80708F0D1C0C11581E0D80708F085
:102380005AC0C83ED10510F7CE01DF91CF911F9101
:102390000895C03682E5D80718F5C03482E5D8071D
:1023A00008F06BC0C03282E5D80708F05FC0C115E5
:1023B00082E5D80708F497C02C2F2695269580E251
:1023C000289F900111248C2F8370C1E0D0E002C0BF
:1023D000CC0FDD1F8A95E2F7C22BD32BDD68D4CF5B
:1023E000C03A82E5D80760F4C03882E5D80708F41F
:1023F00059C0CF71D0E0DC2FCC27C46FD06AC4CFD6
:10240000C03C82E5D80708F462C0C03E82E5D80728
:1024100008F09CCFDC2FCC27CC27DF71C06FD06AAF
:10242000B3CFC55AD0E0CD56DE4FC881D0E0D064DE
:10243000ABCFD065A9CF8D2F0E946113182FCE018D
:1024400099270E94BF12C12FD0E0DC2FCC27CC27C8
:10245000DF71C82BD92B98CFCE0199270E94BF12CC
:10246000CC27DF70C82BD92BD06A8ECFCF71D0E0AC
:10247000DC2FCC27C16FD06A87CF2C2F26952695CD
:10248000277080E2289F900111248C2F8370C1E077
:10249000D0E002C0CC0FDD1F8A95E2F7C22BD32B10
:1024A000DC6872CF2C2F26952695277080E2289F16
:1024B000900111248C2F8370C1E0D0E002C0CC0FBA
:1024C000DD1F8A95E2F7C22BD32BDA685DCF8C2F04
:1024D0008F710E946113C82FD0E0DC2FCC27CC274E
:1024E000DF71D06251CF8C2F8F710E94611355E044
:1024F000D695C7955A95E1F7CF70D0E0DC2FCC2761
:10250000282F30E084FF05C044E0220F331F4A9596
:10251000E1F7C22BD32BD06937CF8D2F8F710E945B
:102520006113182FCE0199270E94BF12C12FD0E04E
:10253000DC2FCC27CC27DF71C82BD92BD2CF462F4D
:1025400020911F0330912003232B89F4703F39F42D
:10255000603F69F480914D0490914E040895743069
:1025600030F46A3020F4672F0E949623089590E09B
:1025700080E008950E949F120E9481110895823880
:102580009105B9F1B0F48133910509F47DC048F4A7
:102590008932910509F46DC08A32910509F47BC036
:1025A00008958533910509F45FC08933910509F1D8
:1025B0000895833E9105D9F138F4803E910529F1C3
:1025C000823E910579F10895863E9105D9F1873EC5
:1025D000910509F43EC0843E910541F52091EC033C
:1025E00021FF24C08091EB0384FD19C087EE90E0A9
:1025F00008952091EB03237009F05AC02091EC0359
:1026000023FF14C089E290E008952091EB0320FDA0
:1026100038C03091EC0330FF09C024FF43C090E084
:1026200080E008952091EB0322FDF7CF08952091DB
:10263000EB0322FD3AC03091EC0330FD39C024FF9A
:10264000F5CFEDCF2091EB0323FFF0CF24FDE7CFB3
:10265000CDCF2091EB0323FD2EC03091EC0331FF51
:10266000EECF84EE90E008952091EB0325FFDECFBE
:10267000C9CF2091EB0325FD21C02091EC0323FF5E
:10268000D5CF89E390E0D2CF2091EB0326FFCECFC8
:102690008AE290E008952091EB0326FFC7CF81E303
:1026A00090E0089583EE90E0089582EE90E0089522
:1026B00080EE90E0089586EE90E0089585E390E046
:1026C00008959091EB0392FF10C041E0282F2471F0
:1026D000243009F040E031E0282F2871283009F03B
:1026E00030E0431711F02CE0822793FF10C041E047
:1026F000282F2471243109F040E031E0282F28717F
:10270000283109F030E0431711F02CE08227309196
:10271000EC0330FF10C051E0282F2171213009F067
:1027200050E041E0282F2871283009F040E054178C
:1027300011F029E0822731FF10C041E0282F2171DC
:10274000213109F040E031E0282F2871283109F0CB
:1027500030E0431711F029E0822794FD877E089529
:1027600080E0089508950E94B213089508950E948C
:10277000B6130895E82FF0E0EE0FFF1FEB50FC4F6B
:1027800021E030E002C0220F331F6A95E2F780811A
:1027900091812823392381E0232B09F480E00895D7
:1027A000E82FF0E0EE0FFF1FEB50FC4F808191818E
:1027B0000895089580EA8A95F1F7089500C0089574
:1027C0000E94DA130895F894E82FE295EF70F0E094
:1027D00031A1282F2F7081E090E001C0880F2A9549
:1027E000EAF7982F9095932391A392A1892B82A326
:1027F00078940895CF93DF9380E90E94E31386EFE6
:102800000E94E31387EF0E94E31381E30E94E31326
:10281000C6E9D1E089918F3F11F00E94E31381E076
:10282000C03AD807B9F7DF91CF910895AF92BF9220
:10283000DF92EF92FF920F931F93CF93DF938C0160
:10284000D62EC62FD0E0CE0180569E4F7C01FC01D3
:1028500020812F3F09F44DC0F894E22FE295EF70EC
:10286000F0E031A12F7081E090E001C0880F2A953F
:10287000EAF7932F982B91A392A18095892382A3A5
:1028800078940E94DE13E6E9F1E040EA51E021E0AD
:1028900030E0B12CA12C61916F3FA9F1A62FA29538
:1028A000AF70B0E090968C9190E06F7002C09595FB
:1028B00087956A95E2F780FD26C0C901A82AB92A42
:1028C000220F331F4E175F0731F7F70180818F3FCB
:1028D00011F00E94E31361E0A114B10409F460E077
:1028E0008D2D0E94E013CC0FDD1FC00FD11FB982C8
:1028F000A882DF91CF911F910F91FF90EF90DF9011
:10290000BF90AF90089590E080E0D8CF0E94FA1376
:1029100088E0E5EFF3E0DF01982F1D929A95E9F743
:10292000EDEEF3E0DF011D928A95E9F784E00E9465
:10293000D7140E94B3130895A8E0B0E0E2EAF4E1EE
:102940000C94F1348E010F5F1F4F88E0F801119253
:102950008A95E9F7F12C6F2DC8010E941614F394A3
:10296000F4E0FF12F8CF48E050E0B8018DEE93E0BC
:102970000E94243521E0009709F420E0892B41F0E2
:1029800088E0F801ADEEB3E001900D928A95E1F791
:1029900044E065EF73E08DEE93E00E94D814182FA9
:1029A0000E94B713812F2896E5E00C940D35089509
:1029B000B0E0A0E0EEEDF4E10C94EE346C017B01AC
:1029C000042FC22F222379F081E0809350020E94CD
:1029D0002B2D90934F0280934E0280E0CDB7DEB74F
:1029E000E8E00C940A35D0915002DD23B1F38091D8
:1029F0004E0290914F020E94432D059770F310E014
:102A0000000F111FA801B601C7010E942435892BB0
:102A100031F0A801B601C7010E943135CD2F1092C7
:102A200050028C2FDBCF0E94081108950E94C42C05
:102A30000E94172F0E94BD100E94312F0E94F41097
:102A40000E943E2F0E94432F0E9413150E945D2F6B
:102A50000E94E52D0E94D410F5CF9093B50180938C
:102A6000B401089581152CE7920741F420912103C8
:102A700030912203232B11F490E080E00895E9E8DF
:102A8000F2E090E080E06CE978E148E258E125EB83
:102A900037E177836683518740873387228797871B
:102AA0008687019670968830910599F70895CF92A0
:102AB000DF92EF92FF921F93CF93DF93CDB7DEB7F4
:102AC0002A970FB6F894DEBF0FBECDBFEDEFF3E04F
:102AD00080E5DF011D928A95E9F7E1E5F2E088E300
:102AE000DF011D928A95E9F78DEFC82E83E0D82E7D
:102AF0007F0110E0F701D182C082BE016F5F7F4F7E
:102B0000812F0E947622892B79F488E0FE0131968C
:102B1000D60101900D928A95E1F789859A85D701B2
:102B200013969C938E931297BAE0CB0ED11CE7E0DC
:102B3000EE0EF11C1F5F1830E9F62A960FB6F894D6
:102B4000DEBF0FBECDBFDF91CF911F91FF90EF9001
:102B5000DF90CF9008950E943F150E945715089569
:102B6000CF92DF92FF920F931F93CF93DF93CDB756
:102B7000DEB72A970FB6F894DEBF0FBECDBF8C012B
:102B8000603269F5DC011196EC911197EE3038F561
:102B9000F0E0E754FA4C0C94D73488E0ECE1F1E033
:102BA000DE01119601900D928A95E1F780E2F8011D
:102BB00011928A95E9F786E0D8018C9311961C92C0
:102BC000119712961C92129713961C92139788E0F5
:102BD000FE013196149601900D928A95E1F72A969E
:102BE0000FB6F894DEBF0FBECDBFDF91CF911F911E
:102BF0000F91FF90DF90CF9008958CE2F8018083D1
:102C000081E0818312821382EACF13968C9113970D
:102C1000682F70E0762F662712968C91860F972F7B
:102C2000911D092E000CAA0BBB0B45E0880F991FC4
:102C3000AA1FBB1F4A95D1F7AC01BD01405E5F4F93
:102C40006F4F7F4F481759076A077B0740F28C3256
:102C5000E1E09E07A105B10510F64D32F1E05F07F6
:102C60006105710520F04CE251E060E070E0481B26
:102C7000590BBC0164567E4FC8010E941B35AFCF73
:102C800040E250E06FEF70E00E943A3580912103FE
:102C9000D8018C9380911F0311968C9311971296F3
:102CA0001C92129713961C92139781E014968C93A2
:102CB000149715968C9393CF81E090E09093200326
:102CC00080931F0382E390E090931E0380931D0383
:102CD0000E942B2D90931C0380931B0380CF809127
:102CE0001F0390912003892B91F160E080E00E9406
:102CF000BA13D82E61E081E00E94BA13F82E8091B9
:102D00001B0390911C030E94432D8536910550F1C1
:102D1000DD2041F1FF2031F10E942B2D90931C0307
:102D200080931B0380911D0390911E030197909344
:102D30001E0380931D03892B51F4109220031092DF
:102D40001F0381E090E09093220380932103809100
:102D50002103F801808380911F03818380911D03EB
:102D600082833DCF82E390E090931E0380931D0306
:102D7000EECF109222031092210331CF40E250E0B7
:102D8000BC0112968D919C910E94121B28CFBC0110
:102D90006F5F7F4F4FE150E0FC01828193810E9481
:102DA000421BD8018C931BCFBC016C5F7F4F4CE161
:102DB00050E0FC01828193810E945D1BF2CF0E9452
:102DC000C21A0DCFFC018281823009F447C0E0F4C1
:102DD0008823D9F1813009F002CF13968C912AE033
:102DE000F22EFE0131966F01DF01EF2D1D92EA9563
:102DF000E9F7B6010E944E22D8018D93F6010190A9
:102E00000D92FA94E1F7EBCE833009F454C084308C
:102E100009F0E5CE1396FC908AE03496DE01119617
:102E200001900D928A95E1F789859A850E94321565
:102E30009A878987BE016F5F7F4F8F2D0E948A22FC
:102E4000F80180830E945715CACE80E21D928A95B0
:102E5000E9F788E0808381831282C1CE1396FC90CB
:102E60008AE03496DE01119601900D928A95E1F781
:102E700089819A810E9432159A8389838B819C81F2
:102E80000E9432159C838B838D819E810E94321516
:102E90009E838D838F8198850E94321598878F83BA
:102EA000BE016F5F7F4F8F2D0E946222F8018083E9
:102EB0000E943F1594CE13968C919AE0F92EFE0154
:102EC00031966F01DF01EF2D1D92EA95E9F7B6010A
:102ED0000E94762291CFA6E0B0E0E1E7F7E10C9402
:102EE000F43490934E0480934D04811520E29207B0
:102EF00030F40E947A032696E2E00C94103580EFBD
:102F000089838A830E942B2D8160682F9C838B8309
:102F100049815A817C8181E091E00E941605EBCFC6
:102F2000A6E0B0E0E6E9F7E10C94F43490934E04A7
:102F300080934D04811520E2920730F40E949003A3
:102F40002696E2E00C94103580EF89838A830E94F4
:102F50002B2D8160682F9C838B8349815A817C81D2
:102F600081E090E00E941605EBCF0F931F93CF9363
:102F7000DF938C01EB0169E073E08C2F0E944E22FD
:102F8000892BA1F480916D0490916E04019798F4BF
:102F9000DD27CD5EDC4F8881F801128218828330F4
:102FA00029F180F4813091F08230B9F0DF91CF9136
:102FB0001F910F910895EFE9FFE03197F1F700C0FD
:102FC0000000E4CF8430B9F0853081F780910903A7
:102FD00090910A03009751F306C080910B039091E2
:102FE0000C03009799F30E949017E0CF80910D0396
:102FF00090910E03F6CF80910F03909110030097EC
:1030000091F72091090330910A0380910B0390916D
:103010000C0321153105F1F2009729F7C901E3CF1F
:10302000CF93DF93EC010E946B1780916D04909118
:103030006E04019730F4CE010E949017DF91CF917A
:103040000895EFE9FFE03197F1F700C00000F1CFFC
:103050000F931F93CF93DF938C01EB0169E073E033
:103060008C2F0E944E22892B09F05CC0FE01FF27A5
:10307000D80112968C911297ED5EFC4F8130B9F415
:1030800015969C9192FF02C080830AC090FFFCCFEE
:1030900082E0808380910B0390910C030097B9F438
:1030A0008091090390910A030097E1F110C08230EA
:1030B000B9F515968C9182FD28C080FD0BC083E088
:1030C000808380910D0390910E03009701F10E947F
:1030D0006B1728C084E0808380910F0390911003C8
:1030E0000097A9F78091090390910A030097F9F0DE
:1030F0000E94101880910B0390910C03009739F7F0
:103100008091090390910A03E2CF85E0808380914A
:10311000090390910A03009729F00E941018F0CF3C
:1031200086E08083DF91CF911F910F910895809168
:103130000B0390910C03B8CF0F931F93CF93DF93A2
:103140008C01862F69E073E00E944E22892BB1F436
:10315000C0910903D0910A03209781F0F801828180
:10316000833051F4CE010E941018CE010E94101835
:10317000CE010E94101802C08430D0F7DF91CF91A9
:103180001F910F910895AAE0B0E0E9ECF8E10C94EA
:10319000F0348C017B0197558F3F910509F070F455
:1031A000BE016F5F7F4F802F0E944E22892B31F42A
:1031B00089859A852A96E6E00C940C35B701C801FA
:1031C0000E948C1BF7CFCF93DF93FB012581211148
:1031D00031C0EC01D755CF3FD10509F058F569E072
:1031E00073E08C2F0E944E22892B21F5CE0124E022
:1031F000880F991F2A95E1F7FC01E757FD4F2281BF
:103200002130E1F42091090330910A03232B91F03E
:1032100020910B0330910C03232B61F020910D03BF
:1032200030910E0340910F0350911003242B352B46
:10323000232B61F081E0DF91CF9108952230D1F707
:1032400020910D0330910E03232BA1F3FC01E257D3
:10325000FD4F20812E7F208387579D4F0E94AA28F3
:10326000E9CFEFE4F4E0848195812AE030E0B90110
:103270000E94AF3460930D01868180930C0182859A
:1032800080930B01848580930A0186859785B90117
:103290000E94AF346093090180898093080182897C
:1032A000809307018489809306010895B0E0A0E02F
:1032B000ECE5F9E10C94EC348FEF9FEF44305105CD
:1032C00008F469C04091EB0341FB882780F990E046
:1032D000880F991F42FB002700F910E0000F111F13
:1032E000000F111F802B912B40FBCC24C0F8D12C58
:1032F0008C299D2943FB222720F9C22FE0E0DE2FF5
:1033000053E0CC0FDD1F5A95E1F78C2B9D2B44FB2E
:10331000AA27A0F9B0E0E4E0AA0FBB1FEA95E1F705
:103320008A2B9B2B45FBEE27E0F9F0E0A5E0EE0FA2
:10333000FF1FAA95E1F78E2B9F2B46FB222720F932
:1033400030E0B6E0220F331FBA95E1F7822B932BC2
:1033500047FB222720F930E03695322F2227379578
:103360002795822B932B2091EC03322F3170F32E73
:10337000E82EF92A26952170B22EBB0CA82EBF2864
:10338000C501BB0CAA0BBB0BFB0180839183A283FD
:10339000B38390E080E0CDB7DEB7EAE00C94083567
:1033A000CF92DF92EF92FF928FEF9FEF4430510563
:1033B00008F46AC0FB01C080D180E280F3800E94E3
:1033C00052068091EB03C0FA80F9B701A601769509
:1033D00067955795479540FB81F9B701A60122E013
:1033E00076956795579547952A95D1F740FB82F9D1
:1033F000B701A60133E076956795579547953A95BD
:10340000D1F740FB83F9B701A601E4E07695679513
:1034100057954795EA95D1F740FB84F9B701A60186
:10342000F5E07695679557954795FA95D1F740FB66
:1034300085F9B701A601A6E076956795579547955A
:10344000AA95D1F740FB86F9B701A601B7E07695BA
:10345000679557954795BA95D1F740FB87F98093C3
:10346000EB038091EC03D0FA80F9D1FACC24C0F8B8
:10347000C0FA81F98093EC038091EB039091EC0307
:103480000E94F70F90E080E0FF90EF90DF90CF90E8
:10349000089580914F04909150040E94311D089529
:1034A000DB01FC013296259134914217530758F005
:1034B000FC01349665917491A901CD010E943135CA
:1034C00090E080E008958FEF9FEF08950F931F9392
:1034D000CF93DF930FE414E0D0E0C0E0CE010E9470
:1034E0003C22F80161918F01861719F0CE010E94EC
:1034F00046222196C432D10589F7DF91CF911F91E1
:103500000F910895DA019C012E5F3F4FF90145911B
:103510005491F90125913491A217B30758F0FC0199
:103520003496859194910E9431350E94661A90E0FC
:1035300080E008958FEF9FEF08950F931F93CF932F
:10354000DF930FE414E0D0E0C0E0CE010E943C2203
:10355000F80181938F012196C432D105B1F7C2EDF4
:10356000D2E0FE0185919491009711F0FC0109953C
:103570002C96F3E0CE3CDF07A1F7DF91CF911F91AE
:103580000F910895EFE4F4E0128E138E8FEA90E02D
:103590009183808325E0248F88E893E1938382835D
:1035A0008AE090E09583848344E150E0578346832A
:1035B00048E050E051874087938782876EE170E052
:1035C000758764879787868780E590E0918B808BED
:1035D000538B428B48E250E0558B448B42E350E0E2
:1035E000578B468B48EC50E0518F408F158E178ECD
:1035F000168E91A380A322A30E94661A0E945206EF
:103600001092EC031092EB03ECEEF3E08081846007
:1036100080838091EB039091EC030E94F70F0E944E
:103620009D1A0895EF92FF920F931F93CF93DF930C
:103630007C01EB018A016FEF70E0CE010E943A3508
:1036400028EC32E0A4ECB3E090E080E0AC014E5F07
:103650005F4F0417150788F0F90165917491E6161C
:10366000F70630F48C0F9D1FFC0171836083CA0143
:10367000245F3F4FA217B30749F7CDB7DEB7E6E0A7
:103680000C940C359C0188EC92E0FC01A591B4915E
:103690002A173B0741F00C96E3E0843C9E07A9F70C
:1036A0008FEF9FEF0895FC013696259134912115F7
:1036B0003105B1F3F901099508950F931F93CF9345
:1036C000DF93C8ECD2E0FE01259134918217930775
:1036D00041F02C9623E0C43CD207A9F70FEF1FEF6F
:1036E00015C0FE0138962591349121153105B1F3AD
:1036F000CE01F90109958C01892B41F4FE013A961E
:1037000085919491009711F0FC010995C801DF9112
:10371000CF911F910F910895809167049091680453
:10372000089580916C048170089580916C04869551
:10373000817091E08927089580916C0483FB88272C
:1037400080F9089580916504909166040895883207
:10375000910538F48E319105E8F40497A0F480E0E7
:1037600008958933910558F48D32910510F48B97A3
:10377000B1F780916A0482FB882780F908C08436FB
:103780009105B9F3ECCF80916A048295817091E044
:103790008927089580916A0483FB882780F9F7CFF1
:1037A00080916A0485FB882780F9089580916A04D6
:1037B00086FB882780F9089580910201877F809396
:1037C000020182E00E94A30E8091020184FF06C0E4
:1037D0008F7E8093020182E00E948A0E8091020116
:1037E00085FF06C08F7D8093020180E20E948A0ED1
:1037F0000E94680F0895CF93DF93EC01662319F0C0
:1038000082E00E949D0ECE0190528115904308F4F3
:10381000DD27CE010E947A03DF91CF9108959C01AC
:1038200030522115304308F499270E9490030895DF
:10383000FC0123E0F695E7952A95E1F7EE71FF2765
:10384000ED5DFC4F20813181AC014F70552781E047
:1038500090E002C0880F991F4A95E2F7662329F08D
:10386000822B932B9183808308958095909582235A
:103870009323F8CFFC0123E0F695E7952A95E1F72D
:10388000EE71FF27ED5DFC4F8F70992721E030E04E
:1038900002C0220F331F8A95E2F78081918128238D
:1038A000392381E0232B09F480E00895B0E0A0E003
:1038B000ECE5FCE10C94EF34EC017B01D42E8901A2
:1038C0008091020182FF83C020914C0330914D030F
:1038D0002C173D0719F0209709F079C0909102014B
:1038E0009B7F9093020161E091FD10C080914E0397
:1038F00090914F03A701481B590B61E08091030190
:10390000909104014817590708F460E061708091B4
:10391000020160FB81F980930201C9010E94181C19
:103920000E94870E81FF08C0809102018061809310
:10393000020182E00E94900E0E94870E85FF08C05F
:103940008091020180628093020180E20E94900EC9
:103950006091020166956170A80180914C0390917D
:103960004D030E94FB1BD11014C080916D049091F7
:103970006E04019728F56091020166956170A801B7
:1039800080914C0390914D030E940F1C0E94DC1B00
:103990002DC0B80180914C0390914D030E94D01B23
:1039A000882319F3B80180914C0390914D030E9434
:1039B000D61B8111DACFCDB7DEB7E7E00C940B351B
:1039C000EFE9FFE03197F1F700C00000D2CFCE0160
:1039D0000E943A1CA801682FCE010E940F1C809102
:1039E0004C0390914D038C179D0781F2F0924F0389
:1039F000E0924E03E0CF80916A0480FF1EC0809168
:103A0000020182FF1AC00E942B2D20914E0330919B
:103A10004F03AC01421B530B209103013091040171
:103A20004217530750F023E433E041E0BC0180919A
:103A30004C0390914D030E94561C089590910201F1
:103A4000892F8E7F90FF8160809302010E94DC1B92
:103A50000895809102018E7F809302010E94DC1BF9
:103A6000089590930401809303010895B0E0A0E0CD
:103A7000ECE3FDE10C94EE34EC017B0180916A04EF
:103A800080FD07C011E0812FCDB7DEB7E8E00C94D0
:103A90000A350E942B2D6C01F7018581882369F17D
:103AA0008091020182FF08C023E433E040E0B601C8
:103AB00090E080E00E94561CC431FCE7DF07D1F0A3
:103AC000C5312CE7D20751F0C3318CE7D80741F458
:103AD0008091020181608093020102C00E941E1D3C
:103AE000CE01905281159043B0F410924D03109284
:103AF0004C03C8CF0E94291DF3CF809102018F7E15
:103B0000C13ED10531F0C53ED105B9F58091020124
:103B10008F7D809302018091020180FFB3CFB701B6
:103B2000CE010E94A71BF7011581882309F4AFC0BD
:103B3000112309F4A5C00E94870E182F0E94AD0E14
:103B4000812B8D7F01F110924D0310924C038091D7
:103B50006A0481FD18C060E0CE010E94181CA70114
:103B600060E0CE010E94FB1B0E94AD0E8D7F0E9483
:103B7000000F82E00E94970F59C0CE01905281152C
:103B8000904348F67FCF89E0F701A3E4B3E00190CA
:103B90000D928A95E1F710924603109245038091A9
:103BA0004C0390914D03C817D90709F04AC0B701DB
:103BB000CE010E94D01B882309F443C080910201EA
:103BC00081FD36C080914E0390914F038601081B02
:103BD000190BB70180914C0390914D030E94C318BB
:103BE0000817190770F50E94870E81FF08C08091A1
:103BF000020180618093020182E00E94900E0E9487
:103C0000870E85FF08C080910201806280930201C7
:103C100080E20E94900E6091020166956170A7019A
:103C200080914C0390914D030E94FB1B10E02BCF21
:103C3000B70180914C0390914D030E94D61B8111D6
:103C4000C1CF0E94870E182F0E94AD0E812B90913C
:103C5000020181FB91F9909302010E94AD0E8D7FCC
:103C60000E94000FD0934D03C0934C03D0924F039A
:103C7000C0924E038091020184608093020179CF4B
:103C8000970140E0B601CE010E94561CFCCE1111F6
:103C90002CCFF8CE0E94D50F089580E00E94D0135B
:103CA000817008950E949C142FEF86E791E02150C7
:103CB00080409040E1F700C000000E949C140E94E8
:103CC0004D1E882321F00E944A1E0E94762D0895E1
:103CD0000E94521E08950895EF92FF920F931F9332
:103CE000CF93DF938091C303882361F0E091500369
:103CF0008DE0F82E8091C303E81748F01092C303BB
:103D000010925003CDB7DEB7E6E00C940C35EE24EC
:103D1000E394EE0EE0925003CE2FD0E0EF9DF00141
:103D20001124E55AFC4F84818823B1F08781908566
:103D3000892BA1F4818592858F3F980779F061E006
:103D40000E946B1EFC9EF001FD9EF00D1124E55AB1
:103D5000FC4F14820E94AA0EEE2DCCCF008111815F
:103D600022813381448155816681778180850E94DB
:103D7000B60DE8CF08951092C5031092C403E1E593
:103D8000F2E08581811102C014821682379682E0AA
:103D9000E938F807B1F70895DC0160915903809183
:103DA0005A03962F891301C00895292F30E0F90195
:103DB000EE0FFF1FEF5AFC4F408151814A175B07FE
:103DC000A1F487E08A9FA0018B9F500D11244F5AC8
:103DD0005D4F81E0FA0184839613E6CF2F5F3F4F5A
:103DE000237033272093590308952F5F3F4F922F5D
:103DF0009370D8CF6F927F929F92AF92BF92CF92E3
:103E0000DF92EF92FF920F931F93CF93DF93DB012B
:103E100014962C911497211157C0A090C303EBE581
:103E2000F3E030E020E0B12C66246394712C2A1575
:103E300008F048C0C384D484ED90FC9011976FEFD4
:103E40007FEF912C492D50E08A01000F111F0E0DBC
:103E50001F1DE801088119810115110531F0C016F7
:103E6000D10609F4BA019394EDCF6F3F7607D9F1EB
:103E7000E30102C0CC0FDD1F6A95E2F7BC2AB30153
:103E800002C0660F771F9A94E2F7AB0141505109C7
:103E9000B416150639F512964D915C9113976DE0A5
:103EA000629FF001639FF00D1124E55AFC4F50878B
:103EB000478324E02483108211829287818721E046
:103EC00015962C930E94CC1EDF91CF911F910F91DC
:103ED000FF90EF90DF90CF90BF90AF909F907F903A
:103EE0006F90089514822F5F3F4F3D96A0CF1F9390
:103EF000CF93DF93C091590317E080915A038C133D
:103F000008C00E946C1E0E94BB1EDF91CF911F91C2
:103F10000895D0E0FE01EE0FFF1FEF5AFC4F8081A5
:103F20009181189FB001199F700D11246F5A7D4F18
:103F30000E94FA1E2196C370E0CF0F931F93CF9378
:103F4000DF93DC012D913C91119740E090E080E0FF
:103F5000E82FF0E0EE0FFF1FE20FF31FC081D181C9
:103F60002097B9F0FB010081118190E005C0CE17C8
:103F7000DF0709F441E09F5FE92FF0E0EE0FFF1F3C
:103F8000E00FF11F0190F081E02D309781F78F5FF6
:103F9000DFCF442349F0981708F4DB01CD01DF910E
:103FA000CF911F910F910895B0E0A0E0F7CF8091DD
:103FB0000501882341F18091C6039091C7030097C2
:103FC00011F10E94432D2091C4033091C50328179D
:103FD0003907C8F49091590380915A03981759F002
:103FE0000E94771F1092C5031092C4031092C7035A
:103FF0001092C60308950E946C1E1092C70310927F
:10400000C6030E94BB1E08951092C7031092C603F8
:104010001092050180915A03809359030E94BB1EA0
:104020000E946C1E089580910501882319F00E945A
:104030000420089581E0809305010895ADE0B0E08B
:10404000E4E2F0E20C94E4344C016B0180352CE79F
:10405000920761F4FB0115811123E9F081E080935F
:104060000501812F2D96E2E10C9400358135FCE7A6
:104070009F0739F4FB011581112369F00E94042088
:10408000F0CF82359C4739F4FB011581112319F0DB
:104090000E941320E6CF9091CD018091CE01892B13
:1040A0000E94BC04182F0E94BA1E181731F0F601A6
:1040B000608171810E949F124C0161E5E62E62E0F1
:1040C000F62EB12CA12C1D8666246394712CCE0192
:1040D00001969B878A87F7012081318144244A9485
:1040E000542C212C822D90E0FC01EE0FFF1FE20FDB
:1040F000F31F408151814115510531F08416950619
:1041000009F42C012394EECF312CFFEF4F165F06FC
:1041100009F44CC0F701448130900501832D411111
:1041200080E0F82FF1703F2EF6018581882309F495
:10413000D6C0332009F4D3C0B701C5010E94A21B29
:104140008C01F7018581811114C09301042C01C0F9
:10415000220F0A94EAF78681822B86838091C4031A
:104160009091C5038017910720F41093C503009325
:10417000C403C301022C02C0880F991F0A94E2F7FE
:104180000197F70126812817190681F48091C6034B
:104190009091C703009709F44FC00E94432D081760
:1041A000190708F049C021E0F7012483FD85F329B0
:1041B000FD872FEFA21AB20A87E0E80EF11C98E003
:1041C000A916B10409F087CFF6018581882309F487
:1041D000F1C0FD85FF2309F4EDC00E942B2D9093C3
:1041E000C7038093C6038091C303883008F591E02C
:1041F000980F9093C30399E0F601DE0111960190A8
:104200000D929A95E1F72DE0829FC0011124855A05
:104210009C4F29E0FE013196DC0101900D922A9518
:10422000E1F72FEF3FEFFC013287218794868386E9
:1042300011E0FD851F2715CF2090590380915A0367
:104240008C8790E080E02C85221216C08E159F0589
:1042500009F4ACCF422C512CF201EE0FFF1FEF5AA4
:10426000FC4FB182A0828FEF481A580A93E049228E
:10427000552440925A039ACF422C512CF201EE0F52
:10428000FF1FEF5AFC4F80819181E7E0E89F80019A
:10429000E99F100D11240F5A1D4FB701C8010E944C
:1042A0009D1F0097A9F021E0FC0124838E159F0536
:1042B00009F47CCF2091590322120AC0801791077C
:1042C00039F492012F5F3F4F237033272093590316
:1042D000EFEF4E1A5E0AF42DF3702F2EB4CFF701D4
:1042E000F581FC87F701868190E0FC85F11120C003
:1042F0009301022C02C0220F331F0A94E2F72150CF
:1043000031092817390731F4442309F451C0C50194
:104310000E94CC1EC301042C01C0880F0A94EAF746
:10432000982F9095F7018681892386833C843ECF20
:10433000AC01042C02C0559547950A94E2F7BA01E6
:10434000617077279C012150310982239323892BA7
:1043500059F5672B49F1F70182819381892BF9F097
:10436000EA85FB8527E011922A95E9F70E942B2D1B
:10437000282F8B839C8384E08D83F7018281938136
:10438000782F8887998709811A813C8144E05E8172
:104390006F81892F0E94B60DF7011582BBCF60E0B7
:1043A000C5010E946B1EF8CFF42FF170FC87B2CFCD
:1043B0003C86B0CF9091590380915A03981719F019
:1043C0000E94771F35CF0E946C1E1092C703109277
:1043D000C6030E94BB1E2CCF84E0089550E0440F1A
:1043E000551F94E1699F400D511D112490E5899F4F
:1043F000400D511D1124CA01889608950F931F93F3
:10440000CF93DF938430C8F46430B8F44A30A8F412
:104410000E94EE218C010E945135C82FD0E0DC2F84
:10442000CC27C80101960E9451359E01282BC90155
:10443000DF91CF911F910F91089590E080E0F8CF28
:104440000F931F93CF93DF93122F032F843078F4B1
:10445000643068F44A3058F40E94EE21EC01602F79
:104460000E946F35612FCE0101960E946F35DF915A
:10447000CF911F910F9108958432910528F48859A6
:104480009E4F0E945135089580E008958432910531
:1044900020F488599E4F0E946F3508959B01883003
:1044A00070F49AE0899FB001112464577E4F4AE06E
:1044B00050E0C9010E94413590E080E008958FEFFF
:1044C0009FEF08959B01883070F49AE0899FB001B6
:1044D000112464577E4F4AE050E0C9010E94933591
:1044E00090E080E008958FEF9FEF08959B01883062
:1044F00070F49AE0899FB001112464527E4F4AE023
:1045000050E0C9010E94413590E080E008958FEFAE
:104510009FEF08959B01883070F49AE0899FB00165
:10452000112464527E4F4AE050E0C9010E94933545
:1045300090E080E008958FEF9FEF0895A4E1B0E050
:10454000E4EAF2E20C94EE34C0902103D09022030E
:1045500081E090E0909322038093210300E010E03B
:1045600012C04F2D612F802F0E9423039C014F2DDD
:10457000612F802F0E942022F3948AE0F812F1CF5D
:104580001F5F143011F0F12CECCF0F5F043039F7BE
:104590000E94C21A1C861B861E861D86188A1F86CC
:1045A0001A8A198A88EC90E09C8B8B8B10E0BE01F4
:1045B000655F7F4F812F0E9462221F5F1830B9F71D
:1045C000FE0131967F018AE011928A95E9F710E0A9
:1045D000B701812F0E948A221F5F1830C9F7D0923D
:1045E0002203C09221036496E8E00C940A35EF920E
:1045F000FF920F931F93CF93DF93EC018A017C010D
:10460000E60EF71ECE018896CE15DF0529F4CDB74C
:10461000DEB7E6E00C940C35C03421E0D20740F45C
:104620000E945135F80180830F5F1F4F2196EACF1A
:10463000F8011082F9CFB0E0A0E0E1E2F3E20C94DF
:10464000E634EC017B018A0180349140D8F480E4A7
:1046500091E08C1B9D0B86179707A0F03E0138E276
:10466000630E711C80912103909122032E01460E4E
:10467000571E892B61F07E01C7018896E414F5046A
:1046800009F043C0CDB7DEB7E0E10C9402356E010E
:1046900081E0C822DD24C0FF0FC0CE0187960E94B2
:1046A0005135F801908189279827892781159C47E2
:1046B00019F48FEFF8018083570140FE13C0F1E039
:1046C000AF1AB10848018A0C9B1CC3018E0D9F1DB7
:1046D0000E945135F401908181159C4719F48FEFA8
:1046E000F4018083F801EC0DFD1D2FEFCA14DB04EB
:1046F00010F69081818181159C4711F420832183DC
:1047000082E0C80ED11C3296F1CFE0E4EE16E1E073
:10471000FE0640F4F701EC1BFD0BE00FF11F60817A
:104720000E946F35FFEFEF1AFF0AA6CF843038F4EE
:10473000643028F44A3018F40E94FE21089590E075
:1047400080E0089580E1089584ED91E00895EF926E
:10475000FF920F931F93CF93DF93EC018A017C01AB
:10476000E60EF71ECE01845D9D4FCE15DF0529F4C0
:10477000CDB7DEB7E6E00C940C35C43D21E0D2079E
:1047800040F40E945135F80180830F5F1F4F21963E
:10479000E9CFF8011082F9CFB0E0A0E0E2EDF3E25A
:1047A0000C94EE347C016A018C01060F171FEC019A
:1047B000CE01845D9D4FC017D10729F4CDB7DEB778
:1047C000E8E00C940A35C43D21E0D20740F4FE0134
:1047D000EE19FF09EC0DFD1D60810E946F352196D9
:1047E000E7CFCF93DF93CCE2D2E060E0CE010E942E
:1047F0006F352196C11584E0D807B9F7DF91CF91C5
:104800000895A4E0B0E0E7E0F4E20C94E734F82E79
:104810002FE0281708F4B1C08FEF93E00E945135C4
:104820008111ABC00CE212E0F11039C034E0C32EAC
:10483000CE0101965C0155245A94F5012C2D11925C
:104840002A95E9F778014FEFE41AF40AC8010E94AB
:1048500051358983882309F490C0813009F088C0DC
:10486000480152E0850E911CC7010E945135D82E97
:104870008A83882309F481C08FEF8D0D8330E8F49B
:10488000780183E0E80EF11CC4010E9451358B834E
:10489000882319F0C5010E9487288701CECF011512
:1048A00044E0140709F469C0C8010E945135811120
:1048B00001C0FA940F5F1F4FB7CF8BEF8D0D833080
:1048C00060F5380193E0690E711CC4010E945135F6
:1048D0008B837301882309F37801E4E0EE0EF11C69
:1048E000C3010E9451358C838823B9F28B819C814E
:1048F0008130FFEF9F0710F0982F882726E0D2160F
:1049000031F047E0D41631F00E941018C6CF0E9453
:104910006B17C3CF0E949017C0CF54E07401D5121B
:10492000BCCFC4010E945135D82E780184E0E80E36
:10493000F11CC80103960E945135DD20F1F0882357
:10494000E1F0E82FE150FF0B5E9EC0015F9E900DED
:1049500011244D2D4150550B840F951F019708F4DC
:104960009CCFEFE9FFE03197F1F700C00000F6CFF0
:1049700060E0C5010E941C2890CF2496EFE00C94C3
:104980000335282F35EB2303C001112497FF04C002
:1049900080589109892F089580589F4FFBCF8091AF
:1049A000CE03609157047091580480FF16C0209187
:1049B0000B01269FC001279F900D1124BC01769505
:1049C0006795769567956038710508F043C0611565
:1049D000710509F441C0862F089581FF0BC0209115
:1049E0000B01269FC001279F900D1124BC017695D5
:1049F0006795E9CF82FF09C080910B019B01829FDF
:104A0000B001839F700D1124DECF2091CD032223AE
:104A1000D1F290910A0180910B01482F50E02917A3
:104A200048F0CB01849FB001859F700D949F700D5D
:104A30001124C9CF289F90011124269FA001279FF0
:104A4000500D369F500D1124692F70E0CA010E944D
:104A5000AF34B9CF8FE7089581E008958091CE03F8
:104A600080FF0CC06091070170E0759567957595A2
:104A700067956115710549F1862F089581FF06C07C
:104A80006091070170E075956795F3CF609107011C
:104A900082FD0BC09091CC039923A1F06091060197
:104AA00080910701961738F0682F70E06038710523
:104AB00000F38FE70895899FC001112470E00E94E0
:104AC000C334F4CF61E070E0D7CF81E008959091D6
:104AD000D1032091D203922B2091D403922B2091C9
:104AE000D303922B31F098E09093CD0391E0909313
:104AF000CC038D3C31F40E94CF2481958093D20366
:104B000008958E3C19F40E94CF24F8CF8F3C31F4E5
:104B10000E94CF2481958093D1030895803D19F49C
:104B20000E94CF24F8CF893D29F40E942E2580933E
:104B3000D30308958A3D21F40E942E258195F7CF55
:104B40008B3D31F40E942E2581958093D4030895E6
:104B50008C3D19F40E942E25F8CF9FE2980F9830D3
:104B600070F4815D990B21E030E001C0220F8A953D
:104B7000EAF78091D003822B8093D00308958D3D76
:104B800031F48091CE0381608093CE0308958E3DF1
:104B900021F48091CE038260F7CF8F3DB9F78091E9
:104BA000CE038460F1CF4091D1038D3C59F48091C4
:104BB000D20387FF0DC01092D20341110BC0109297
:104BC000CD0308C08E3C81F48091D20318169CF36B
:104BD000442381F08091D3039091D403892B09F071
:104BE0005AC01092CC0308958F3C49F447FFF0CF90
:104BF0001092D1038091D2038111ECCFE0CF803DA0
:104C000019F41416ACF3E4CF9091D303893D29F441
:104C10001916F4F61092D303DBCF8A3D19F497FFEF
:104C2000D7CFF8CF9091D4038B3D29F497FFD0CF05
:104C30001092D403CDCF8C3D19F41916CCF3C8CF04
:104C40009FE2980F983090F4815D990B21E030E05D
:104C5000B90102C0660F771F8A95E2F7CB018095F4
:104C60009091D00389238093D003B2CF8D3D31F44E
:104C70008091CE038E7F8093CE03AACF8E3D21F408
:104C80008091CE038D7FF7CF8F3D09F0A1CF80912A
:104C9000CE038B7FF0CF08950E942B2D9C01909125
:104CA000D1038091D203982B21F03093CB03209332
:104CB000CA039091D3038091D403982B21F03093B1
:104CC000C9032093C8038FEC93E00E94952B0895AD
:104CD00086E0EFECF3E0DF011D928A95E9F7109290
:104CE000CD031092CC031092CE030895FC01828173
:104CF00081110EC0838181110BC08481811108C094
:104D000091E08581811101C090E0892F8170089523
:104D100081E0FCCFA6E0B0E0E0E9F6E20C94F334E9
:104D200086E0EFECF3E0DE01119601900D928A959A
:104D3000E1F71092D1031092D2031092D303109294
:104D4000D4038B819C81892B89F08091CA03909137
:104D5000CB030E94432DAC019091CD039923C9F15F
:104D600080910C018417150608F440C08D819E8146
:104D7000892B91F08091C8039091C9030E94432D23
:104D8000AC019091CC03992309F46AC08091080189
:104D90008417150608F472C0BE016F5F7F4F8FEC59
:104DA00093E00E94582C811105C08FEC93E00E9483
:104DB000762681110E944C2686E0FE013196AFECEA
:104DC000B3E001900D928A95E1F72696E3E00C940A
:104DD0000F3520910D018AE0289F9001112424179E
:104DE000350720F69F5F9093CD0302C09F3FD1F718
:104DF0001B81112359F00E94CF249FEF11160CF450
:104E000091E0899F802D11248093D1031C8111236F
:104E100059F00E94CF249FEF11160CF491E0899F66
:104E2000802D11248093D2038091D103882309F42B
:104E30009DCF1091D203112309F498CF0E94C12471
:104E4000882351F08093D103812F0E94C1248823AD
:104E500029F08093D2038ACF81E0F4CF81E0F9CFAB
:104E6000209109018AE0289F900111242417350719
:104E700008F092CF9F5F9093CC0302C09F3FD1F781
:104E80001D81112359F00E942E259FEF11160CF45D
:104E900091E0899F802D11248093D3031E811123DB
:104EA00059F00E942E259FEF11160CF491E0899F76
:104EB000802D11248093D4038091D303882309F497
:104EC0006BCF1091D403112309F466CF0E94C12443
:104ED000882351F08093D303812F0E94C12488231B
:104EE00029F08093D40358CF81E0F4CF81E0F9CF4B
:104EF000B0E0A0E0EEE7F7E20C94ED34E82FF0E04C
:104F0000EC53FC4FB490282F26952695269530E03B
:104F1000F901EC59FB4F0491877010E0082E02C094
:104F2000159507950A94E2F701701127F901EC5ADB
:104F3000FB4FE490F12C082E02C0F594E7940A94FC
:104F4000E2F791E0E922FF24F901EC5BFB4FC49109
:104F5000D0E002C0D595C7958A95E2F7C170DD27EC
:104F6000C62ED12C0115110549F5E114F10431F0DB
:104F700086EE0E947F05C601009771F5B6018B2D64
:104F80000E94FB05C601009779F5E114F104A1F533
:104F90000115110531F081EE0E94C805C601009788
:104FA000C9F5CD2B31F08CE20E941306C114D10457
:104FB000C9F5CDB7DEB7E9E00C94093581EE0E9462
:104FC0007F05C601009789F2EFE9FFE03197F1F71D
:104FD00000C000000197F6CFEFE9FFE03197F1F74D
:104FE00000C000000197C8CFEFE9FFE03197F1F76B
:104FF00000C000000197C7CF86EE0E94C805C60119
:10500000009731F2EFE9FFE03197F1F700C00000BF
:105010000197F6CFEFE9FFE03197F1F700C000000C
:105020000197BDCF8FE99FE00197F1F700C0000025
:1050300091E0C91AD108BACFEF92FF920F931F9354
:10504000CF93DF93EC01162F0AE08881882309F4BF
:1050500059C0813009F052C08981813071F47E01DC
:1050600082E0E80EF11C8A810E941306E701812F7D
:1050700090E00097D9F52196E8CF823041F47E0187
:10508000E2E0EE0EF11C8A810E947F05EFCF8330B3
:1050900041F47E01F2E0EF0EF11C8A810E94C80506
:1050A000E5CF843011F02196E2CF2A81229690E05C
:1050B00080E0AE014F5F5F4F2053330B2A30310544
:1050C00050F00097A1F2EFE9FFE03197F1F700C04F
:1050D00000000197F6CF089FB001099F700D1124C1
:1050E000C901860F971F2981EA01E3CFEFE9FFE0AD
:1050F0003197F1F700C000000197BBCF612F0E94EC
:105100007827B9CFCDB7DEB7E6E00C940C3560E078
:105110000E941C2808954115510511F0FA010995C6
:105120000895CF93DF93EC014A855B856E857F857B
:105130000E948B288B810E94A30E8C810E94900E6E
:105140000E94680F86E0FE0111928A95E9F7DF91CF
:10515000CF910895CF93DF93EC018D8181FD11C034
:1051600082608D838B810E949D0E8C810E948A0EAD
:105170000E94680F488559856E857F85CE010E9403
:105180008B281092D8031092D7038D8180FD03C025
:10519000CE010E949128DF91CF910895CF93FB011A
:1051A000C581CC23F1F0E091D703F091D80330977B
:1051B000D9F0E817F907C1F0FF2724E0EE0FFF1F31
:1051C0002A95E1F7DF01A257BD4F2C9124602C9363
:1051D000E757FD4F91838083CF010E94AA280E9448
:1051E000AA0E8C2FCF910895C0E0FBCF0F931F9391
:1051F000CF93DF938C0197558F3F910509F0C8F548
:10520000C801992724E0880F991F2A95E1F7EC013E
:10521000C757DD4FFB012581FC01E257FD4F80811F
:1052200020FB80F98083222351F10E942B2D909343
:10523000D6038093D5038A818F5F8A830E94870E6D
:105240008B830E949A0E9B81892B8B830E94AD0ECB
:105250008C834E815F816E857F85CE010E948B2875
:105260008D8181FF02C010E000E01093D80300930D
:10527000D70381E0DF91CF911F910F9108954C8565
:105280005D856E857F85CE010E948B288D8181FF93
:10529000F0CFCE010E9491288091D7039091D8033E
:1052A0008017910731F71092D8031092D703E1CFFE
:1052B000A9E0B0E0EEE5F9E20C94F2348091D70376
:1052C0009091D803892B61F18091D5039091D603F9
:1052D0000E94432D8C01BE016F5F7F4F89E0FB016F
:1052E00011928A95E9F78091D7039091D8030E9493
:1052F000C31880179107A0F48091D7039091D80329
:10530000992724E0880F991F2A95E1F7FC01E257BD
:10531000FD4F208122FD04C087579D4F0E94AA287F
:105320002996E4E00C940E351F93CF93DF938737D3
:105330002CE7920759F0C1E088379C47E1F4FB0164
:10534000C581CC2371F10E94D72906C0FB01C5811C
:10535000CC23B1F00E94D4290E9469090E94DA2965
:10536000D82F0E94D729C82F0E94D4294D2F6C2FE7
:105370000E94910AC0E08C2FDF91CF911F91089578
:105380000E94D4290E9475090E94DA29182F0E94D0
:10539000D729D82F0E94D429412F6D2F0E94910A1E
:1053A000EACF0E94D729EECF809110010895809115
:1053B0000F01089580910E01089584E290E00E940B
:1053C00051358A3889F485E290E00E945135843461
:1053D00059F486E290E00E94513591E08D3009F059
:1053E00090E0892F8170089580E0FCCFCF93C82F83
:1053F0006FEF81116AE884E290E00E946F356FEFF1
:10540000C11164E485E290E00E946F356FEFC11135
:105410006DE086E290E00E946F35CF910895089587
:1054200087E290E00E945135682F70E090E080E0C4
:1054300008950895CF93C62F0E94192A6C2F87E2F2
:1054400090E00E946F35CF91089580E00E94F62988
:1054500060E070E0CB010E941A2A0E949E220E9406
:10546000F12381E00E94F62908950E940F2A0E94EC
:10547000102A0E94192A0E94DD29811102C00E946F
:10548000252A08959C01FB018581882351F0A901FB
:1054900057574038510530F4822F0E94012480E094
:1054A000089581E008952FEFFC0120830895EF9285
:1054B000FF920F931F93CF93DF93EC01162F8881F8
:1054C00020911F0330912003232B79F08E3F09F0A8
:1054D0005CC08981833020F08550833008F055C04E
:1054E000612FCE010E94B01550C08B3009F4EAC084
:1054F000D0F4843009F488C060F4823009F44EC0DE
:1055000008F075C08130F1F1612FCE010E94532A5D
:105510003CC0863009F48EC008F481C08A30A0F700
:105520008FEF888332C0803109F4A4C000F58D303C
:1055300009F487C008F481C08E3009F48AC08F3026
:1055400019F78091210390912203892BF1F06B814F
:1055500070E06D317105C8F489819A81AE014C5FAC
:105560005F4F9827892798270E94CC230EC082314D
:1055700009F486C008F481C0833109F492C08E3FDB
:1055800019F6AECF198289E08A83612FCE010E947D
:10559000DC2DCDB7DEB7E6E00C940C358981823086
:1055A00071F0833079F0813009F0AECF0E94372D51
:1055B0000E94DD346A837B838C839D83E6CF0E94C7
:1055C000102AF6CF8091210390912203892BE9F2D2
:1055D0007E0100E0802F0E94D013F7019283838325
:1055E0000F5FF2E0EF0EF11C0430A1F7CECF8981FE
:1055F000823009F089CF6A817B818C819D810E94F4
:10560000DD340E941A2AC1CF4B816A8189810E94B0
:10561000FE219827892798279D838C83B6CF2C81DC
:105620003D813227232732274B816A8189810E945D
:105630002022ABCF0E949E22A8CF0E94A223898362
:10564000A4CF0E94A4239827892798279A83898327
:105650009CCF6B8170E06D31710508F096CF898128
:105660009A81AE014C5F5F4F9827892798270E9447
:10567000A7238BCF0E94F12388CF0E94EC21DFCF9C
:105680006B8170E06D31710508F07FCF89819A815F
:10569000AE014C5F5F4F9827892798270E94F72219
:1056A00074CF6B8170E06D31710508F06ECF898128
:1056B0009A81AE014C5F5F4F9827892798270E94F7
:1056C0001B2363CF8091210390912203892B09F43E
:1056D0005CCFCE010E94DC2D2FEF81EE94E02150B3
:1056E00080409040E1F700C000000E94762D4DCF31
:1056F0009093DE038093DD030895E091DD03F09144
:10570000DE03309729F00190F081E02D099508958E
:1057100080E00895E091DD03F091DE03309721F001
:105720000280F381E02D09950895E091DD03F09169
:10573000DE03309739F022E0DC012C930680F781FC
:10574000E02D09950895A3E0B0E0E9EAFBE20C94AE
:10575000F4342091DB033091DC0328173907A1F0E2
:105760009093DC038093DB03E091DD03F091DE0393
:10577000309751F023E029839B838A830084F1854D
:10578000E02DCE01019609952396E2E00C941035A8
:10579000A3E0B0E0EEECFBE20C94F4342091D903EA
:1057A0003091DA0328173907A1F09093DA03809338
:1057B000D903E091DD03F091DE03309751F024E04E
:1057C00029839B838A830084F185E02DCE01019695
:1057D00009952396E2E00C94103540910001509118
:1057E00001019A012E5F3F4F485F5F4F80E0241711
:1057F000350709F40895F90191919F019923B9F3AF
:105800008F5FF5CF882371F0209100013091010165
:10581000F9013296285F3F4F9191981729F0E217CE
:10582000F307D1F780E0089581E008959C01FC0121
:1058300032969FEF80E04191461751F09F3F19F457
:10584000411101C0982F8F5F8630A9F79F3F09F45F
:105850000895290F311D97FD3A95F9016283089546
:10586000FC01329608962191261303C0DF0111979F
:105870001C92E817F907B9F70895682F8091000185
:10588000909101010E94162C0895682F80910001CB
:10589000909101010E94302C0895E0910001F09157
:1058A0000101329686E0DF011D928A95E9F708959D
:1058B000DC01FB0111969C9111978181981322C004
:1058C00012968C911297882319F0928189131AC02D
:1058D00013968C911397882319F09381891312C022
:1058E00015968C911597882319F0958189130AC014
:1058F00014969C91992321F081E02481291303C0FF
:1059000080E001C081E08170089508950E94852C97
:105910000895811106C081E08093DF030E94862CE8
:10592000089582E0F9CF83E08093DF030E94862C04
:1059300008950E94892C089581E08093DF030E94DE
:10594000862C08950E949C2C0895089508950E9425
:10595000A62C0895089508950E94A52C0895CF932C
:105960000E94AA2C0E949C140E94AB2CC0E08C2F99
:105970000E94D013892B31F4CF5FC430C1F780E08F
:10598000CF91089581E0FCCF85B7806885BF85B74A
:10599000806885BF08951F921FB61F9211248F93B0
:1059A0009F93AF93BF938091E003811113C08091C7
:1059B000730490917404A0917504B091760441969B
:1059C000A11DB11D8093730490937404A09375047A
:1059D000B0937604BF91AF919F918F911F901FBE9E
:1059E0001F90189580917B04843031F10E94B2049D
:1059F0001092E00388E190E020E40FB6F894A895B7
:105A0000809360000FBE2093600083B7817F846025
:105A100083BF83B7816083BF7894889583B78E7F77
:105A200083BF0FB6F894A895809160008861809339
:105A30006000109260000FBE08950E9452060E94FE
:105A4000B704089582E084BD93E095BD9AEF97BDB9
:105A500080936E0008952FB7F8948091730490910D
:105A60007404A0917504B09176042FBF08952FB7E8
:105A7000F89460917304709174048091750490910E
:105A800076042FBF08959C014FB7F894809173045A
:105A900090917404A0917504B09176044FBF821B5D
:105AA000930B089578941F921FB61F9211248F9321
:105AB0009F93AF93BF938091730490917404A091CE
:105AC0007504B09176040196A11DB11D80937304F5
:105AD00090937404A0937504B0937604BF91AF9132
